:400000000080002011000000C9050000C905000008B5044B1A6803F53F5302331A6000F0F3FA00BFFA46004010B5054C237833B9044B13B10448AFF300800123237010BDEE
:400040004881FF1F0000000080160000084B10B51BB108490848AFF300800848036803B910BD074B002BFBD0BDE81040184700BF000000004C81FF1F80160000C880FF1FD6
:400080000000000010B592B062B600F025F900F043FB052000F03CFE00240CE0E0B200F071F938B122467B4905A800F0C5FE05A800F04CFB01347F2CF0DD0DF113020F2151
:4000C000182000F00FF948B99DF81320724905A800F0B2FE05A800F039FB02E06F4800F035FB0DF112022721182000F0FBF848B99DF812206A4905A800F09EFE05A800F0AF
:4001000025FB02E0674800F021FB0DF111022021182000F0E7F848B99DF81120624905A800F08AFE05A800F011FB02E05F4800F00DFB5F4800F00AFB9DF81130472B14D020
:4001400047228DF811202021182000F003F948B99DF81120574905A800F06EFE05A800F0F5FA02E0544800F0F1FA0DF111022021182000F0B7F848B99DF811204F4905A871
:4001800000F05AFE05A800F0E1FA02E0474800F0DDFA04AA1F21182000F0A4F848B99DF81020474905A800F047FE05A800F0CEFA02E0444800F0CAFAC02212AC04F8382DD5
:4001C0001F21182000F0C6F822461F21182000F089F848B99DF810203B4905A800F02CFE05A800F0B3FA02E0364800F0AFFA0DF10F022321182000F075F848B99DF80F2087
:40020000324905A800F018FE05A800F09FFA02E02F4800F09BFA802212AC04F8392D2321182000F097F822462321182000F05AF848B99DF80F20274905A800F0FDFD05A820
:4002400000F084FA02E0224800F080FAA0238DF80830C0238DF80B30642000F059FD01AB02220C21182000F05BF80028F4D19DF804309DF8052043EA022343F389138DF8DC
:400280000930C3F307238DF80A30042102A800F06FFAE1E784160000A4160000CC160000F01600000C1700004817000068170000A4170000C0170000F8170000341800004C
:4002C0006C18000094180000DC18000018190000381900007419000008B500F0A3FA002008BD00BFF8B506460D461746002100F015FC044668B9284600F0A2FC044640B968
:400300000121304600F04AFC044610B900F0C4FC387000F079FC201C18BF0120F8BD00BF2DE9F04180460F4615461E460024012008E039193219C9B24046FFF7D3FF01289A
:4003400005D00134AC42F4DB003018BF0120BDE8F08100BF70B50D461646002100F0DEFB044640B9284600F06BFC044618B9304600F066FC044600F047FC201C18BF01205F
:4003800070BD00BF10B5002100F0C8FB044600F03BFC0CB9012010BD002010BDFEE700BFF0B40022174611E050F82760F3B226F0FF0608E001EB420511F812406D78A5550B
:4003C0000132013BDBB2002BF4D101370E2FEBD9F0BC7047064B1B78DBB203F00701054A11701B09013213704422034B1A707047CF0100496E5800407658004008B50A4630
:40040000002100F010FD08BD38B54FF49C72244B1A80182202331A70022203F27E231A7008224FF040231A70032103F5007319701C4B1B78DBB21C490B701C4B1A8041F24C
:400440005122023B1A80002419250CE0184B1B7803F0010343EA440404F003044FF4F07000F09AFC013D0DB1032CEFD115B90320FFF794FF0F4B4FF480721A8007221A701D
:4004800000220D490A704820023108701A700222033B1A70094A137843F00103137038BD8040004008010049A146004022420040254200400440004006400040A243004041
:4004C00008B500F0A5FC08BD38B572B6314A137843F00403137000240CE02F4D630019194A0011462A44084691882858FFF786FF0134E4B2092CF0D900240CE02648A20096
:4005000011194B000344B3F84420196CD86BFFF7D7FF0134E4B2012CF0D920494FF09040FFF73EFF1E4A137843F0020313701032137843F0020313701A4C237843F0400343
:400540002370A2F58632513A137843F0100313700A2215491548FFF7B3FF082214491548FFF7AEFF144A137843F008031370134D61232B70FFF748FF81232B700122104B81
:400580001A70FFF727FF0E2221460E48FFF798FF38BD00BFE8460040A81900003C00004803500140A043004068030048C0510040740300481251004022430040004800406A
:4005C00004000840B043004008B500F0F5FB03680C2B00D1FEE7FEE708B5094B1A681044084BC31A802B02DC054B186005E000F0E3FB0C2303604FF0FF32104608BD00BFAB
:40060000CC80FF1F8881FF1F08B5104E104D16E029686B68AC68002204E051F8040B43F8040B0432A242F8D1E868002203E0002143F8041B04328242F9D11035013E002E72
:40064000E6D100F0BFFBFFF71DFDFEE701000000541A000008B5104A104B1A60104A136843F40073136000230AE0032B03D80D4A52F8231000E00C490C4A42F823100133C1
:400680002F2BF2D90A4B1A780A4B1A70074A0A4B1A60FFF719FF08BD0004FA050CED00E014ED00E000000000C90500000080FF1FBC760040C080FF1F08ED00E07222074BA8
:4006C0001A70202201331A7006225F3B1A70472210331A70002251331A7070478865004010B500F061FB04460A4A137843F0200313700132137843F0100313700232137881
:4007000043F01003137000F0F3FA204600F050FB10BD00BF9865004008B5054B1B7823B9FFF7CCFF0122024B1A70FFF7D9FF08BD6481FF1F034B1B7813F0040FFAD1024BCD
:40074000187070476B6500404B65004038B5074B1B782BB938BDFFF7EDFF0134A4B201E005460024285D0028F5D138BD6481FF1F084B1B7833B97047305DFFF7DBFF01344C
:40078000E4B203E070B50D4606460024AC42F3D370BD00BF6481FF1F38B50222114B1A7081220E3B1A70082202331A700F2511331D70002401331C704FF400420A4B1A60A2
:4007C0000721284600F0CEFA0849284600F0B6FA1022074B1A70074B1C70074B1C70074B1C7038BDD649004080E100E04D0800007081FF1F8181FF1F7481FF1F7581FF1F64
:4008000008B500F0D1FA064A137843F0040313701032137843F00403137000F0C9FA08BDA543004008B5074B1B7823B9FFF7B4FF0122044B1A70FFF7E3FF4FF40042024BB1
:400840001A6008BD6681FF1F00E100E038B5A54B1C78A54B1B7813F0400F00F03A81E4B214F0010F00F01D819F4B1B78453B052B00F21481DFE813F006008200120112011E
:400880000600DF0004F0DF0504F00A04082C42D1954B1B78DBB2452B35D1944B1B7813F0FF0F10D0924B1B681B78DBB2914A137004228C4B1A7001228F4B1A7046228A4B30
:4008C0001A702C46EDE08D4B1B7813F0020F0DD08B4A137843F00A0313706022824B1A704FF40042874B1A602C46DAE0864A137843F0100313701022844B1A700422023BC8
:400900001A702C46CDE00022764B1A704A22764B1A702C46C5E00A2C2BD1794A137843F0A0031370754B1B7813F0020F14D06E4B1B7813F0080F01D0092300E00A23704A85
:4009400011780B4313706022674B1A704FF400426C4B1A602C46A4E06B4A137843F0100313701022694B1A700422023B1A702C4697E0002000F0CAF92C4692E014F0020F98
:4009800036D15D4B1A78D2B2584B1B78DBB29A4210D2594A1378DBB255490968CB5CDBB254490B7004214F4B197013780133DBB2137076E0514B1B7813F0020F0CD0504A35
:4009C000137843F00A0313706022474B1A704FF400424C4B1A6064E04B4A137843F0100313701022494B1A700422023B1A7058E0424B1B7813F0020F0CD0414A137843F07A
:400A00009A0313706022384B1A704FF400423D4B1A6046E03C4A137843F01003137010223A4B1A700422023B1A70354A137843F09003137035E0364A1378DBB23549086864
:400A40002C490978C9B2C15413780133DBB213701278D2B2304B1B78DBB29A4203D21022204B1A701DE0254B1B7813F0020F0CD0234A137843F00903137060221A4B1A7085
:400A80004FF400421F4B1A600BE01F4A137843F0100313700022134B1A7002E0002000F035F914F0200F1CD00F4B1B7813F0080F01D0012300E00223114A11780B43137026
:400AC000114A137803F0EF0313701022064B1A7038BD054B1B7813F0100F02D11022024B1A7038BDD74900407081FF1F7681FF1F7881FF1FD84900407581FF1F8081FF1FA1
:400B00008181FF1F80E100E0D6490040D94900407481FF1F7C81FF1F8281FF1F1A4B1B78DBB2102B29D1194B1B7813F0080F26D14FF40042164B1A604000C0B229B140F066
:400B400001004922104B1A7002E045220E4B1A70104B1870012201331A700F4B1B7813F0010FFAD00C4B1B7803F00A030A2B08D11022054B1A700320704702207047012092
:400B800070470020704700BF7081FF1FD949004080E100E0D8490040D7490040164B1B7813F0040F23D04000C0B229B140F001004922124B1A7002E04522104B1A70104BE0
:400BC0001870122201331A700422023B1A700D4B1B7813F0010FFAD00A4B1B7803F00A030A2B06D11022054B1A7003207047022070470020704700BFD94900407081FF1F0C
:400C0000D8490040D74900400A4B1B7813F0040F0ED01023074A13700421023A1170064A1370064B1B7813F0210FFAD00020704702207047D94900407081FF1FD7490040F9
:400C4000114B1B7813F0040F1BD0104B18700422013B1A7046220E4B1A700E4B1B7813F0010FFAD00B4B1B7813F0020F04D16022074B1A70002070476022054B1A7003201B
:400C800070470220704700BFD9490040D84900407081FF1FD7490040114B1B7813F0040F1BD0104B1B78DBB2492B05D100220E4B1A704A220B4B1A700B4B1B7813F0010FB1
:400CC000FAD00A4B1B78DBB218B11021064A117004E06021034A117000E0002318467047D94900407081FF1FD7490040D8490040054A137843F0010313701032137843F0D9
:400D000001031370704700BFA243004001BE704710B5044605E0084B186800F03DF8A4F50044B4F5004FF6D8034B586800FB04F000F032F810BD00BFD080FF1F70B504460C
:400D40000E46074B1D681F2802D90020FFF7DEFF04F01F04103455F8240045F8246070BD08ED00E038B504460D46072902D90020FFF7CCFF1F2C02D90020FFF7C7FF04F038
:400D80001F0000F1604000F564406D01EDB2057038BD00BF000000000230800803D000BF01380046FCD17047EFF3108072B6704780F31088704700BF014B1868704700BF51
:400DC0004081FF1F0E4B70B51E460E4C0025E41AA410A54204D056F8253098470135F8E700F026FE084B094C1E46E41AA4100025A54204D056F8253098470135F8E770BD39
:400E00003C1A00003C1A00003C1A0000441A000010B5431E0A44914204D011F8014B03F8014FF8E710BD03460244934202D003F8011BFAE7704700000EB400B54FF40271D9
:400E40009CB0ADF814106FF00041049107914FF6FF711DAB02900690084853F8042BADF81610006802A9019300F064F8029B00221A701CB05DF804EB03B070474081FF1FC1
:400E80002DE9F0478E6882469E420C46914698463ED88A8912F4906F3AD02568096902236F1A656905EB450595FBF3F57B1C43449D4238BF1D4653050FD5294600F040FBAE
:400EC000064698B13A462169FFF7A2FFA38923F4906343F08003A38113E02A4600F08EFB064670B92169504600F0DEFA0C23CAF80030A3894FF0FF3043F04003A381BDE879
:400F0000F08726613E44266046466561ED1BA560464528BF464649463246206800F0A8FAA36800209B1BA36023681E442660BDE8F08700002DE9F04F9DB003938B898046A8
:400F40001C060D4616460DD50B695BB9402100F0F7FA2860286118B90C23C8F80030CDE040236B610023099320238DF82930DFF89CB130238DF82A3037463C4614F8013B9A
:400F80001BB9B7EB060910D003E0252BF9D02746F3E74B46324629464046FFF771FF013000F0A780099B4B4409933B78002B00F0A08000234FF0FF3204930793059206932C
:400FC0008DF853301A930126052221784E4800F041FA671C049B38B14B4A3C46801A06FA00F018430490EFE7D90644BF20228DF853201A0744BF2B228DF8532022782A2AB0
:4010000003D0079A00210A200BE0039A111D12680391002A10DA524243F00200079204900BE027463B780134303B092B03D800FB02320121F5E701B107923B782E2B1ED1F6
:401040007B782A2B0AD1039B02371A1D1B680392002BB8BF4FF0FF33059310E0002319460593781C0A2407463A780130303A092A03D804FB01210123F5E703B10591032278
:401080003978224800F0E6F940B14023CBEB000003FA00F0049B013718430490397806221B487E1C8DF8281000F0D4F988B1194B33B9039B073323F007030833039314E0F6
:4010C00003AB00932A46144B04A94046AFF3008007E003AB00932A460F4B04A9404600F093F8B0F1FF3F824603D0099B5344099342E7AB895B0601D4099801E04FF0FF3017
:401100001DB0BDE8F08F00BFFA190000001A0000041A000000000000810E00002DE9F04791461F460A698B6806469342B8BF1346C9F8003091F843200C46DDF8208012B1DE
:401140000133C9F800302368990642BFD9F800300233C9F80030256815F0060510D104F1190A07E00123524639463046C04701301AD00135E368D9F800209B1A9D42F1DBD6
:4011800094F843302268003318BF012392060FD5E118302081F843005A1C94F845102244023382F8431003E04FF0FF30BDE8F08704F1430239463046C0470130F4D0226816
:4011C000D9F80050E36802F00602042A08BF5D1B2269A3680CBF25EAE57500259342C4BF9B1AED184FF000091A344D4509D00123224639463046C0470130D5D009F10109B8
:40120000F3E70020BDE8F0872DE9F04317460A7E85B06E2A984606460C460C9B01F1430E00F0AE8011D8632A22D009D8002A00F0BB80582A40F0CA8081F84520834955E0A0
:40124000642A1ED0692A1CD0C0E0732A00F0B08009D86F2A2ED0702A40F0B8800A6842F020020A603EE0752A24D0782A3AD0ADE01A6801F14205111D1960136884F84230B7
:40128000A8E021681A6811F0800F02D0111D196008E011F0400F02F10401196002D0B2F9003000E01368002B3CDA2D225B4284F8432037E021681A6811F0800F02D0111D23
:4012C000196007E011F0400F02F10401196001D0138800E01368227E5C496F2A14BF0A2208221BE078225A4984F845202268186812F0800F00F104051D6003D1550601D5CF
:40130000038800E00368D00744BF42F0200222601BB9226822F0200222601022002084F8430001E049490A226568002DA56008DB206820F0040020602BB9002D7DD175464B
:401340000CE0002B79D07546B3FBF2F002FB1033CB5C05F8013D03460028F5D1082A0BD12368DA0708D5236962689A42DEBF302305F8013C05F1FF35C5EB0E0323612EE0B9
:4013800008681A6810F0800F496903D0101D1860136808E010F0400F02F104001860136801D0198000E0196000232361754616E01A68111D1960156800216268284600F0DC
:4013C00049F808B1401B6060636804E004F1420584F8422001232361002384F84330CDF800803B4603AA21463046FFF797FE013002D14FF0FF3026E023692A463946304611
:40140000C0470130F5D023689B0710D5002504F1190907E001234A4639463046C0470130E7D00135E368039A9B1A9D42F2DBE068039B9842B8BF184605E00B7804F142052A
:4014400084F842308AE705B0BDE8F0830B1A00001C1A000010B5C9B202449042034605D01C7801308C42F8D1184610BD002010BD884210B501EB020301D8421E0BE098427D
:40148000FBD28118D21AD34204D013F8014D01F8014DF8E710BD994204D011F8014B02F8014FF8E710BD000038B50546002944D051F8043C0C1F002BB8BFE41800F0D4F828
:4014C0001E4A1368114613B96360146030E0A3420DD92268A018834201BF18685B681218226063600C6023E0A24203D813465A68002AF9D118681918A1420BD121680144E0
:4015000058188242196013D110685268014419605A600DE002D90C232B6009E021686018824201BF106852680918216062605C602846BDE8384000F098B838BD6C81FF1F63
:4015400070B5CD1C25F0030508350C2D38BF0C25002D064601DBA94202D90C23336046E000F082F8234B1C681A462146A1B10B685B1B0ED40B2B03D90B60CC18CD501EE0E3
:401580008C420BBF63684B681360636018BF0C4615E00C464968E9E7174C23681BB9304600F052F820602946304600F04DF8431C18D0C41C24F00304A0420DD125603046E5
:4015C00000F053F804F10B00231D20F00700C31A0ED05A42E25070BD211A304600F034F80130EBD10C233360304600F03EF8002070BD00BF6C81FF1F6881FF1FF8B5074673
:4016000015460E4621B91146BDE8F840FFF798BF1AB9FFF749FF2846F8BD00F027F885420ED929463846FFF78BFF044650B131462A46FFF7EDFB31463846FFF735FF01E032
:401640003046F8BD2046F8BD38B5064C0023054608462360FEF7C0FF431C02D1236803B12B6038BD8481FF1F7047704751F8040C0028BEBF091851F8043CC01804387047FD
:40168000000000004465766963652030782530325820697320636F6E6E65637465640D0A0000000057484F20414D2049205245473A20307825303258205B45787065637485
:4016C00065643A20307833335D0D0A004572726F72206F6363757272656420647572696E672049324320636F6D6D0D0A000000005354415455532052454749535445523AB7
:40170000203078253032580D0A0000004572726F72206F6363757272656420647572696E672049324320636F6D6D20746F20726561642073746174757320726567697374E6
:4017400065720D0A00000000434F4E54524F4C20524547495354455220313A203078253032580D0A000000004572726F72206F6363757272656420647572696E67204932C7
:401780004320636F6D6D20746F207265616420636F6E74726F6C20726567697374657220310D0A000D0A57726974696E67206E65772076616C7565732E2E0D0A00000000C5
:4017C000434F4E54524F4C2052454749535445522031207375636365737366756C6C79207772697474656E2061733A203078253032580D0A000000004572726F72206F6398
:4018000063757272656420647572696E672049324320636F6D6D20746F2073657420636F6E74726F6C20726567697374657220310D0A0000434F4E54524F4C2052454749EB
:40184000535445522031206166746572206F7665727772697465206F7065726174696F6E3A203078253032580D0A000054454D504552415455524520434F4E464947205221
:40188000454749535445523A203078253032580D0A0000004572726F72206F6363757272656420647572696E672049324320636F6D6D20746F20726561642074656D70654F
:4018C00072617475726520636F6E6669672072656769737465720D0A0000000054454D504552415455524520434F4E46494720524547495354455220616674657220626561
:40190000696E6720757064617465643A203078253032580D0A000000434F4E54524F4C20524547495354455220343A203078253032580D0A000000004572726F72206F637C
:4019400063757272656420647572696E672049324320636F6D6D20746F207265616420636F6E74726F6C207265676973746572340D0A0000434F4E54524F4C205245474977
:40198000535445522034206166746572206265696E6720757064617465643A203078253032580D0A00000000C84900401900005100401000205100405000F05100401000A2
:4019C00000000140001000140140000480180140800300400140000A004C0140000200500140200060520040E0020048060000180140E802004880004300232D302B2000DB
:401A0000686C4C006566674546470030313233343536373839414243444546003031323334353637383961626364656600000000F8B500BFF8BC08BC9E4670474D000000B2
:401A400055060000F8B500BFF8BC08BC9E46704729000000681A0000C880FF1F800000004000000000000000000000008881FF1F0000E02EC05D00001800000000366E01AC
:401A80000000000000000000000000000000000000000000000000000000000000000000F81900000000000000000000000000000000000000000000000000000000000015
:401AC0000000000000000000000000000000000000000000000000000000000000000000E080FF1F0000000000000000000000000000000000000000000000000000000068
:401B000000000000000000000000000000000000000000000000000000000000000000000000000000000000000000000000000000000000000000000000000000000000A5
:401B40000000000000000000000000000000000000000000000000000000000000000000000000000000000000000000000000000000000000000000000000000000000065
:401B80000000000000000000000000000000000000000000000000000000000000000000000000000000000000000000000000000000000000000000000000000000000025
:401BC00000000000000000000000000000000000000000000000000000000000000000000000000000000000000000000000000000000000000000000000000000000000E5
:020000040003F7
:0200000480007A
:400000000365004003150140011701401418014046190140711A0140521B014002420140014301400348014010490140084C01400C4D01400250014001510140887289389F
:400040008B0FE008E820EA05E6088602880495019A08A202A401A801AC01B002B208B401B501B604BE41BF10D418D804D904DB04DF010120022004080511060208200C408A
:400080000D080E2610A2111014801681172418081A091B251C101D211E06230825082620270129102B082E422F28300834403501361037043A013B013EA03F0944404520CB
:4000C00047404C804E044F4057025B015C10600463026C226D106E087621772486018A208B408D208E40C0F6C2E2C4FFCAF0CCF2CEF0D0B0D230D621D80CE008E608001022
:400100000240060309800B13130C1414152C1743181019711AAC1B061C091ED01F08200C2271262028DC2A222D712F0E30E031C0330F341F353039223A023B083F10400282
:40014000454049FF4A074BFF4C404D204EF04F055008580459045A045F01604061A8624063208013810882048314842086C08720881389188A0C8C808E209301940A9518BA
:40018000961498E09B019C039D109E149F0CA101A208A501A615A8E0AB02AC40AE20AF20B010B106B2E0B301B40FB520B718B908BA20BE01BF11C023C105C50BC60CC70EFF
:4001C000C815C9FFCAFFCBFFCEF0CF44D00CD401D804D904DA04DB04DF01E6C0EA40EB020102032005140640070109200A220D880E0812581512161219201B211D341E40C8
:400200001F0821192209240425042680274129802A402B012C402E042F0A30803118320134803501369438203D183E02411045204610488049024D804E1050105210544848
:4002400055805E405F2988608A028B208C088F01911092049404984099019B089CA09D209E029F40A214A302A408A708C0FCC2E7C4FECAF8CCFFCEE4D064D210D6F0E00804
:40028000E820EA053E10CE20961085089610E6101302164075087B02864099089F02A302AA10AB02B302C430DC80DE20E010EAA01328144078107F4084408710C40EDE0362
:4002C000104073108740884093109780AB28B010C408DC01E201E80410011C0103C0000002800000430000001F102000000023040318000001800000001C00E11C082300CB
:40030000333C0CC23FFF000002440000040000E30CC0000008E700182C00101F0F3800C00000A208000004002604050001C000E022FFFFFF62A0F0410C00000000000211F1
:4003400004040404000000010000000000004002001030100010101200000000000000000000000000000000830040808300830000000000000B0B00000000000000000049
:40038000000000000000000000000000000000000000000000000000000000000000000000000000000000000000000000000000000000000000000000000000000000003D
:4003C00000000000000000000000000000000000000000000000000000000000000000000000000000000000000000000000000000000000000000000000000000000000FD
:4004000000000000000000000000000000000000000000000000000000000000000000000000000000000000000000000000000000000000000000000000000000000000BC
:40044000000000000000000000000000000000000000000000000000000000000000000000000000000000000000000000000000000000000000000000000000000000007C
:0200000490006A
:0400000000004005B7
:0200000490105A
:04000000BC90ACAF55
:0200000490303A
:02000000334B80
:0200000490402A
:4000000000000000000000000000000000000000000000000000000000000000000000000000000000000000000000000000000000000000000000000000000000000000C0
:400040000000000000000000000000000000000000000000000000000000000000000000000000000000000000000000000000000000000000000000000000000000000080
:400080000000000000000000000000000000000000000000000000000000000000000000000000000000000000000000000000000000000000000000000000000000000040
:4000C0000000000000000000000000000000000000000000000000000000000000000000000000000000000000000000000000000000000000000000000000000000000000
:0200000490501A
:0C00000000012E16106900012E2043B4F0
:00000001FF