:400000000080002011000000210700002107000008B5044B1A6803F53F5302331A6000F09FFB00BFFA46004010B5054C237833B9044B13B10448AFF300800123237010BD8D
:400040004881FF1F00000000E81D0000084B10B51BB108490848AFF300800848036803B910BD074B002BFBD0BDE81040184700BF000000004C81FF1FE81D0000C880FF1FF8
:400080000000000010B58EB062B600F0D5F800F0DFFB052000F0D8FE00240CE0E0B200F03BF938B12246544901A801F079FA01A800F0E8FB01347F2CF0DD0DF103020F2196
:4000C000182000F0BFF848B99DF803204B4901A801F066FA01A800F0D5FB02E0484800F0D1FB0DF102022721182000F0ABF848B99DF80220434901A801F052FA01A800F06B
:40010000C1FB02E0404800F0BDFB0DF101022021182000F097F848B99DF801203B4901A801F03EFA01A800F0ADFB02E0384800F0A9FB384800F0A6FB9DF80130572B14D077
:4001400057228DF801202021182000F0CDF848B99DF80120304901A801F022FA01A800F091FB02E02D4800F08DFB6A462321182000F068F848B99DF80020294901A801F01A
:400180000FFA01A800F07EFB02E0264800F07AFB204800F077FB9DF80030982B14D098228DF800202321182000F09EF848B99DF800201D4901A801F0F3F901A800F062FB40
:4001C00002E0184800F05EFB052000F03DFE00F0DBFE164800F000FF0022154B1A70144B1B7813F0FF0FFAD00E21124800F05CFB00220F4B1A70F2E7EC1D00000C1E000053
:40020000301E0000541E00006C1E0000A01E0000B81E0000EC1E0000081F0000341F0000681F00007C1F0000B41F0000310300007281FF1F7481FF1F08B500F08FFB0020B8
:4002400008BD00BFF8B506460D461746002100F001FD044678B9284600F08EFD044650B90121304600F036FD044620B900F0B0FD387000F065FD00F063FD201C18BF012092
:40028000F8BD00BF2DE9F04180460C4616461F46002100F0DFFC0546F0B944F0800000F06BFD0546C0B90121404600F013FD054650B111E0C4EB0608012000F089FD07F8C2
:4002C0000800013CE4B200E03446012CF2D8013E002000F07DFDB85500F032FD281C18BF0120BDE8F08100BF70B50D461646002100F0B0FC044640B9284600F03DFD044616
:4003000018B9304600F038FD044600F019FD201C18BF012070BD00BF10B5002100F09AFC044600F00DFD0CB9012010BD002010BD70B582B000F0E4FD394A27211820FFF770
:4003400081FF384B1870012868D0354B1B7813F0080F63D0344B022228211820FFF792FF304B1870012859D02F4C04220121204600F080F800F00AFF2C4B00932C4B4FF0E7
:400380008A424FF0454100F059F801F0A3F80546234602222A211820FFF774FF214B187001283BD004220121204600F063F800F0EDFE1E4B00931E4B4FF08A424FF04541EA
:4003C00000F03CF801F086F80646234602222C211820FFF757FF134B187001281ED004220121204600F046F800F0D0FE0F4B00930F4B4FF08A424FF0454100F01FF801F01A
:4004000069F8F023019370230093034632462946084800F04BF80122074B1A7002B070BD7381FF1F8281FF1F7081FF1F3AA3154C3AA315CC7481FF1F7281FF1FF8B50F4699
:4004400016461C4600F0ECFD05463946304600F0E7FD06462146069800F0E2FD314600F09DFF0146284600F0E5FE0146204600F0D9FDF8BD31B10378407843EA002000B2EA
:40048000104170470178437843EA012000B21041704700BF002305E0DA0040FA02F2CA540133DBB2032BF7D9704700BF30B585B005460191029203939DF8203003709DF8C8
:4004C0002430437300240AE0A300591C04AA1344294453F80C0CFFF7DDFF0134E4B2022CF2D905B030BD00BFFEE700BFF0B40022174611E050F82760F3B226F0FF0608E0D1
:4005000001EB420511F812406D78A5550132013BDBB2002BF4D101370E2FEBD9F0BC7047064B1B78DBB203F00701054A11701B09013213704422034B1A707047CF010049A2
:400540006E5800407658004008B50A46002101F01EF808BD38B59B22264B1A801823264A137040F65F1102321180023213700222224B1A7008224FF040231A70032103F5DB
:40058000007319701E4B1B78DBB21E490B701E4B1A8041F25122023B1A80002419250CE01A4B1B7803F0010343EA440404F003044FF4F07000F020FD013D0DB1032CEFD10C
:4005C00015B90320FFF790FF114B4FF480721A8007221A7000220F490A704820023108701A700222033B1A700B4A137843F00303137038BD80400040824000400043004014
:4006000008010049A146004022420040254200400440004006400040A243004008B500F0ABFF08BD38B572B6304A137843F00403137000240CE02E4D630019194A00114613
:400640002A44084691882858FFF77EFF0134E4B2092CF0D900240BE02549A3001819420088180622016CC06BFFF7D8FF0134E4B2002CF1D01F494FF09040FFF737FF1E4A66
:40068000137843F0020313701032137843F0020313701A4C237843F040032370A2F58632513A137843F0100313700A2214491548FFF7B4FF082214491448FFF7AFFF144AC0
:4006C000137843F008031370124D61232B70FFF741FF81232B7001220F4B1A70FFF720FF0E2221460D48FFF799FF38BDE8460040E01F00003C00004803500140A043004088
:40070000F0010048C0510040FC01004812510040224300400048004004000840B043004008B500F0FDFE03680C2B00D1FEE7FEE708B5094B1A681044084BC31A802B02DC16
:40074000054B186005E000F0EBFE0C2303604FF0FF32104608BD00BFCC80FF1F9881FF1F08B5104E104D16E029686B68AC68002204E051F8040B43F8040B0432A242F8D105
:40078000E868002203E0002143F8041B04328242F9D11035013E002EE6D100F0C7FEFFF771FCFEE7010000008020000008B5104A104B1A60104A136843F40073136000239D
:4007C0000AE0032B03D80D4A52F8231000E00C490C4A42F8231001332F2BF2D90A4B1A780A4B1A70074A0A4B1A60FFF71BFF08BD0004FA050CED00E014ED00E00000000069
:40080000210700000080FF1FBC760040C080FF1F08ED00E00622044B1A70472210331A7000224F331A7070472B65004010B500F0EBFB0446054A137843F01003137000F0E9
:40084000F3FA204600F0E4FB10BD00BF9A65004008B5054B1B7823B9FFF7DCFF0122024B1A70FFF7E3FF08BD6481FF1F034B1B7813F0040FFAD1024B187070476A65004047
:400880004A65004038B5074B1B782BB938BDFFF7EDFF0134A4B201E005460024285D0028F5D138BD6481FF1F084B1B7833B97047305DFFF7DBFF0134E4B203E070B50D466A
:4008C00006460024AC42F3D370BD00BF6481FF1F38B50222114B1A7081220E3B1A70082202331A700F2511331D70002401331C704FF400420A4B1A600721284600F0CEFA04
:400900000849284600F0B6FA1022074B1A70074B1C70074B1C70074B1C7038BDD649004080E100E0850900008381FF1F9181FF1F8481FF1F8581FF1F08B500F065FB064A97
:40094000137843F0040313701032137843F00403137000F05DFB08BDA543004008B5074B1B7823B9FFF7B4FF0122044B1A70FFF7E3FF4FF40042024B1A6008BD6681FF1F5F
:4009800000E100E038B5A54B1C78A54B1B7813F0400F00F03A81E4B214F0010F00F01D819F4B1B78453B052B00F21481DFE813F006008200120112010600DF0004F0DF0564
:4009C00004F00A04082C42D1954B1B78DBB2452B35D1944B1B7813F0FF0F10D0924B1B681B78DBB2914A137004228C4B1A7001228F4B1A7046228A4B1A702C46EDE08D4B0B
:400A00001B7813F0020F0DD08B4A137843F00A0313706022824B1A704FF40042874B1A602C46DAE0864A137843F0100313701022844B1A700422023B1A702C46CDE000225C
:400A4000764B1A704A22764B1A702C46C5E00A2C2BD1794A137843F0A0031370754B1B7813F0020F14D06E4B1B7813F0080F01D0092300E00A23704A11780B431370602233
:400A8000674B1A704FF400426C4B1A602C46A4E06B4A137843F0100313701022694B1A700422023B1A702C4697E0002000F0CAF92C4692E014F0020F36D15D4B1A78D2B26E
:400AC000584B1B78DBB29A4210D2594A1378DBB255490968CB5CDBB254490B7004214F4B197013780133DBB2137076E0514B1B7813F0020F0CD0504A137843F00A0313706B
:400B00006022474B1A704FF400424C4B1A6064E04B4A137843F0100313701022494B1A700422023B1A7058E0424B1B7813F0020F0CD0414A137843F09A0313706022384B61
:400B40001A704FF400423D4B1A6046E03C4A137843F01003137010223A4B1A700422023B1A70354A137843F09003137035E0364A1378DBB2354908682C490978C9B2C154C2
:400B800013780133DBB213701278D2B2304B1B78DBB29A4203D21022204B1A701DE0254B1B7813F0020F0CD0234A137843F00903137060221A4B1A704FF400421F4B1A6061
:400BC0000BE01F4A137843F0100313700022134B1A7002E0002000F035F914F0200F1CD00F4B1B7813F0080F01D0012300E00223114A11780B431370114A137803F0EF0383
:400C000013701022064B1A7038BD054B1B7813F0100F02D11022024B1A7038BDD74900408381FF1F8681FF1F8881FF1FD84900408581FF1F9081FF1F9181FF1F80E100E066
:400C4000D6490040D94900408481FF1F8C81FF1F9281FF1F1A4B1B78DBB2102B29D1194B1B7813F0080F26D14FF40042164B1A604000C0B229B140F001004922104B1A7005
:400C800002E045220E4B1A70104B1870012201331A700F4B1B7813F0010FFAD00C4B1B7803F00A030A2B08D11022054B1A700320704702207047012070470020704700BF55
:400CC0008381FF1FD949004080E100E0D8490040D7490040164B1B7813F0040F23D04000C0B229B140F001004922124B1A7002E04522104B1A70104B1870122201331A705F
:400D00000422023B1A700D4B1B7813F0010FFAD00A4B1B7803F00A030A2B06D11022054B1A7003207047022070470020704700BFD94900408381FF1FD8490040D749004070
:400D40000A4B1B7813F0040F0ED01023074A13700421023A1170064A1370064B1B7813F0210FFAD00020704702207047D94900408381FF1FD7490040114B1B7813F0040F61
:400D80001BD0104B18700422013B1A7046220E4B1A700E4B1B7813F0010FFAD00B4B1B7813F0020F04D16022074B1A70002070476022054B1A70032070470220704700BF90
:400DC000D9490040D84900408381FF1FD7490040114B1B7813F0040F1BD0104B1B78DBB2492B05D100220E4B1A704A220B4B1A700B4B1B7813F0010FFAD00A4B1B78DBB26D
:400E000018B11021064A117004E06021034A117000E0002318467047D94900408381FF1FD7490040D8490040054A137843F0010313701032137843F001031370704700BFC6
:400E4000A243004001BE704710B5044605E0084B186800F0D1F8A4F50044B4F5004FF6D8034B586800FB04F000F0C6F810BD00BFD080FF1F70B504460E46074B1D681F282E
:400E800002D90020FFF7DEFF04F01F04103455F8240045F8246070BD08ED00E038B504460D46072902D90020FFF7CCFF1F2C02D90020FFF7C7FF04F01F0000F1604000F5C4
:400EC00064406D01EDB2057038BD00BF084A137843F0010313701032137843F00103137002F64D32137843F001031370704700BFA3430040014B1870704700BF034F0040C6
:400F0000014B1878704700BF034F0040014B1880704700BF044F0040014B1880704700BF064F004008B5154A137803F0010313700232137803F0FC031370114B1A7802F0BC
:400F4000CF021A701A7842F030021A701A7802F0F0021A701A7842F00F021A70094A137843F0010313706320FFF7D0FF6320FFF7D3FF0820FFF7BEFF08BD00BF004F00401E
:400F80000B4F0040014F004008B5054B1B7823B9FFF7C8FF0122024B1A70FFF797FF08BD6781FF1F014B1B681864704708ED00E04001C0B2014B1870704700BF00E400E0E5
:400FC0000122014B1A60704700E100E00122014B1A60704780E100E010B50446FFF7F6FF2046FFF7DFFF0720FFF7E2FFFFF7E8FF10BD00BF000000000230800803D000BFC8
:4010000001380046FCD17047EFF3108072B6704780F31088704700BF80F0004002E000BF81F0004142001FBF5FEA410392EA030F7FEA226C7FEA236C6AD04FEA1262D2EB0A
:401040001363C1BFD218414048404140B8BF5B42192B88BF704710F0004F40F4000020F07F4018BF404211F0004F41F4000121F07F4118BF494292EA030F3FD0A2F1010219
:4010800041FA03FC10EB0C00C3F1200301FA03F100F0004302D5494260EB4000B0F5000F13D3B0F1807F06D340084FEA310102F10102FE2A51D2B1F1004F40EBC25008BF0D
:4010C00020F0010040EA03007047490040EB000010F4000FA2F10102EDD1B0FA80FCACF1080CB2EB0C0200FA0CF0AABF00EBC25052421843BCBFD0401843704792F0000F25
:4011000081F4000106BF80F400000132013BB5E74FEA41037FEA226C18BF7FEA236C21D092EA030F04D092F0000F08BF0846704790EA010F1CBF0020704712F07F4F04D121
:40114000400028BF40F00040704712F100723CBF00F50000704700F0004343F0FE4040F4000070477FEA226216BF08467FEA23630146420206BF5FEA412390EA010F40F4BC
:40118000800070474FF0000304E000BF10F0004348BF40425FEA000C08BF704743F0964301464FF000001CE050EA010208BF70474FF000030AE000BF50EA010208BF704785
:4011C00011F0004302D5404261EB41015FEA010C02BF84460146002043F0B64308BFA3F18053A3F50003BCFA8CF2083AA3EBC25310DB01FA02FC634400FA02FCC2F1200216
:40120000BCF1004F20FA02F243EB020008BF20F00100704702F1200201FA02FCC2F1200250EA4C0021FA02F243EB020008BF20EADC7070474FF0FF0C1CEAD0521EBF1CEA14
:40124000D15392EA0C0F93EA0C0F6FD01A4480EA010C400218BF5FEA41211ED04FF0006343EA501043EA5111A0FB01310CF00040B1F5000F3EBF490041EAD3715B0040EA9F
:40128000010062F17F02FD2A1DD8B3F1004F40EBC25008BF20F00100704790F0000F0CF0004C08BF49024CEA502040EA51207F3AC2BFD2F1FF0340EAC250704740F400002E
:4012C0004FF00003013A5DDC12F1190FDCBF00F000407047C2F10002410021FA02F1C2F1200200FA02FC5FEA310040F1000053EA4C0308BF20EADC70704792F0000F00F02E
:40130000004C02BF400010F4000F013AF9D040EA0C0093F0000F01F0004C02BF490011F4000F013BF9D041EA0C018FE70CEAD15392EA0C0F18BF93EA0C0F0AD030F0004C0D
:4013400018BF31F0004CD8D180EA010000F00040704790F0000F17BF90F0004F084691F0000F91F0004F14D092EA0C0F01D142020FD193EA0C0F03D14B0218BF084608D124
:4013800080EA010000F0004040F0FE4040F40000704740F0FE4040F4400070474FF0FF0C1CEAD0521EBF1CEAD15392EA0C0F93EA0C0F69D0A2EB030280EA010C49024FEA32
:4013C000402037D04FF0805343EA111143EA10130CF000408B4238BF5B0042F17D024FF4000C8B4224BF5B1A40EA0C00B3EB510F24BFA3EB510340EA5C00B3EB910F24BFB4
:40140000A3EB910340EA9C00B3EBD10F24BFA3EBD10340EADC001B0118BF5FEA1C1CE0D1FD2A3FF650AF8B4240EBC25008BF20F0010070470CF0004C4CEA50207F32C2BFC2
:40144000D2F1FF0340EAC250704740F400004FF00003013A37E792F0000F00F0004C02BF400010F4000F013AF9D040EA0C0093F0000F01F0004C02BF490011F4000F013BA1
:40148000F9D041EA0C0195E70CEAD15392EA0C0F08D142027FF47DAF93EA0C0F7FF470AF084676E793EA0C0F04D14B023FF44CAF08466EE730F0004C18BF31F0004CCAD197
:4014C00030F000427FF45CAF31F000437FF43CAF5FE700BF4FEA4002B2F1FE4F0FD34FF09E03B3EB12620DD94FEA002343F0004310F0004F23FA02F018BF404270474FF0A1
:401500000000704712F1610F01D1420205D110F0004008BF6FF0004070474FF000007047014B1868704700BF4081FF1F0E4B70B51E460E4C0025E41AA410A54204D056F805
:40154000253098470135F8E700F088FD084B094C1E46E41AA4100025A54204D056F8253098470135F8E770BD6820000068200000682000007020000010B5431E0A449142DC
:4015800004D011F8014B03F8014FF8E710BD03460244934202D003F8011BFAE7704700000EB400B54FF402719CB0ADF814106FF00041049107914FF6FF711DAB0290069072
:4015C000084853F8042BADF81610006802A9019300F064F8029B00221A701CB05DF804EB03B070474081FF1F2DE9F0478E6882469E420C46914698463ED88A8912F4906FA1
:401600003AD02568096902236F1A656905EB450595FBF3F57B1C43449D4238BF1D4653050FD5294600F040FB064698B13A462169FFF7A2FFA38923F4906343F08003A38100
:4016400013E02A4600F08EFB064670B92169504600F0DEFA0C23CAF80030A3894FF0FF3043F04003A381BDE8F08726613E44266046466561ED1BA560464528BF4646494645
:401680003246206800F0A8FAA36800209B1BA36023681E442660BDE8F08700002DE9F04F9DB003938B8980461C060D4616460DD50B695BB9402100F0F7FA2860286118B9B4
:4016C0000C23C8F80030CDE040236B610023099320238DF82930DFF89CB130238DF82A3037463C4614F8013B1BB9B7EB060910D003E0252BF9D02746F3E74B463246294652
:401700004046FFF771FF013000F0A780099B4B4409933B78002B00F0A08000234FF0FF3204930793059206938DF853301A930126052221784E4800F041FA671C049B38B15C
:401740004B4A3C46801A06FA00F018430490EFE7D90644BF20228DF853201A0744BF2B228DF8532022782A2A03D0079A00210A200BE0039A111D12680391002A10DA524265
:4017800043F00200079204900BE027463B780134303B092B03D800FB02320121F5E701B107923B782E2B1ED17B782A2B0AD1039B02371A1D1B680392002BB8BF4FF0FF333E
:4017C000059310E0002319460593781C0A2407463A780130303A092A03D804FB01210123F5E703B1059103223978224800F0E6F940B14023CBEB000003FA00F0049B013795
:4018000018430490397806221B487E1C8DF8281000F0D4F988B1194B33B9039B073323F007030833039314E003AB00932A46144B04A94046AFF3008007E003AB00932A4629
:401840000F4B04A9404600F093F8B0F1FF3F824603D0099B5344099342E7AB895B0601D4099801E04FF0FF301DB0BDE8F08F00BF282000002E2000003220000000000000F4
:40188000E91500002DE9F04791461F460A698B6806469342B8BF1346C9F8003091F843200C46DDF8208012B10133C9F800302368990642BFD9F800300233C9F800302568DF
:4018C00015F0060510D104F1190A07E00123524639463046C04701301AD00135E368D9F800209B1A9D42F1DB94F843302268003318BF012392060FD5E118302081F843001B
:401900005A1C94F845102244023382F8431003E04FF0FF30BDE8F08704F1430239463046C0470130F4D02268D9F80050E36802F00602042A08BF5D1B2269A3680CBF25EA83
:40194000E57500259342C4BF9B1AED184FF000091A344D4509D00123224639463046C0470130D5D009F10109F3E70020BDE8F0872DE9F04317460A7E85B06E2A9846064638
:401980000C460C9B01F1430E00F0AE8011D8632A22D009D8002A00F0BB80582A40F0CA8081F84520834955E0642A1ED0692A1CD0C0E0732A00F0B08009D86F2A2ED0702AEA
:4019C00040F0B8800A6842F020020A603EE0752A24D0782A3AD0ADE01A6801F14205111D1960136884F84230A8E021681A6811F0800F02D0111D196008E011F0400F02F1D3
:401A00000401196002D0B2F9003000E01368002B3CDA2D225B4284F8432037E021681A6811F0800F02D0111D196007E011F0400F02F10401196001D0138800E01368227EDA
:401A40005C496F2A14BF0A2208221BE078225A4984F845202268186812F0800F00F104051D6003D1550601D5038800E00368D00744BF42F0200222601BB9226822F02002B7
:401A800022601022002084F8430001E049490A226568002DA56008DB206820F0040020602BB9002D7DD175460CE0002B79D07546B3FBF2F002FB1033CB5C05F8013D034646
:401AC0000028F5D1082A0BD12368DA0708D5236962689A42DEBF302305F8013C05F1FF35C5EB0E0323612EE008681A6810F0800F496903D0101D1860136808E010F0400F6B
:401B000002F104001860136801D0198000E0196000232361754616E01A68111D1960156800216268284600F049F808B1401B6060636804E004F1420584F84220012323612B
:401B4000002384F84330CDF800803B4603AA21463046FFF797FE013002D14FF0FF3026E023692A4639463046C0470130F5D023689B0710D5002504F1190907E001234A4629
:401B800039463046C0470130E7D00135E368039A9B1A9D42F2DBE068039B9842B8BF184605E00B7804F1420584F842308AE705B0BDE8F083392000004A20000010B5C9B25A
:401BC00002449042034605D01C7801308C42F8D1184610BD002010BD884210B501EB020301D8421E0BE09842FBD28118D21AD34204D013F8014D01F8014DF8E710BD99425B
:401C000004D011F8014B02F8014FF8E710BD000038B50546002944D051F8043C0C1F002BB8BFE41800F0D4F81E4A1368114613B96360146030E0A3420DD92268A0188342E3
:401C400001BF18685B681218226063600C6023E0A24203D813465A68002AF9D118681918A1420BD12168014458188242196013D110685268014419605A600DE002D90C2345
:401C80002B6009E021686018824201BF106852680918216062605C602846BDE8384000F098B838BD6C81FF1F70B5CD1C25F0030508350C2D38BF0C25002D064601DBA94205
:401CC00002D90C23336046E000F082F8234B1C681A462146A1B10B685B1B0ED40B2B03D90B60CC18CD501EE08C420BBF63684B681360636018BF0C4615E00C464968E9E728
:401D0000174C23681BB9304600F052F820602946304600F04DF8431C18D0C41C24F00304A0420DD12560304600F053F804F10B00231D20F00700C31A0ED05A42E25070BD52
:401D4000211A304600F034F80130EBD10C233360304600F03EF8002070BD00BF6C81FF1F6881FF1FF8B5074615460E4621B91146BDE8F840FFF798BF1AB9FFF749FF2846AA
:401D8000F8BD00F027F885420ED929463846FFF78BFF044650B131462A46FFF7EDFB31463846FFF735FF01E03046F8BD2046F8BD38B5064C0023054608462360FEF7B8FCC7
:401DC000431C02D1236803B12B6038BD9481FF1F7047704751F8040C0028BEBF091851F8043CC01804387047000000004465766963652030782530325820697320636F6E8B
:401E00006E65637465640D0A0000000057484F5F414D5F493A20307825303258205B45787065637465643A20307833335D0D0A004572726F72206F63637572726564206426
:401E40007572696E672049324320636F6D6D0D0A000000005354415455535F5245473A203078253032580D0A000000004572726F72206F6363757272656420647572696EA0
:401E8000672049324320636F6D6D20746F2072656164205354415455535F5245470D0A004354524C5F5245473120313A203078253032580D0A0000004572726F72206F6312
:401EC00063757272656420647572696E672049324320636F6D6D20746F2072656164204354524C5F524547310D0A00000D0A57726974696E67206E65772076616C7565735C
:401F00002E2E0D0A000000004354524C5F52454731207375636365737366756C6C79207772697474656E2061733A203078253032580D0A004572726F72206F636375727275
:401F4000656420647572696E672049324320636F6D6D20746F20736574204354524C5F524547310D0A0000004354524C5F524547343A203078253032580D0A004572726FC6
:401F800072206F6363757272656420647572696E672049324320636F6D6D20746F2072656164204354524C5F5245473420340D0A000000004354524C5F5245473420737547
:401FC000636365737366756C6C79207772697474656E2061733A203078253032580D0A00C84900401900004F00400C00005100401000205100405000F05100401000000053
:402000000140001000140140000800400140000A004C0140000200500140200060520040E801004806004300232D302B2000686C4C00656667454647003031323334353667
:4020400037383941424344454600303132333435363738396162636465660000F8B500BFF8BC08BC9E4670474D000000AD070000F8B500BFF8BC08BC9E4670472900000099
:4020800090200000C880FF1F8000000050000000000000009881FF1F0000E02EC05D00001800000000366E010000000000000000000000000000000000000000000000001B
:4020C000000000000000000026200000000000000000000000000000000000000000000000000000000000000000000000000000000000000000000000000000000000009A
:402100000000000000000000E080FF1F0000000000000000000000000000000000000000000000000000000000000000000000000000000000000000000000000000000021
:40214000000000000000000000000000000000000000000000000000000000000000000000000000000000000000000000000000000000000000000000000000000000005F
:40218000000000000000000000000000000000000000000000000000000000000000000000000000000000000000000000000000000000000000000000000000000000001F
:4021C00000000000000000000000000000000000000000000000000000000000000000000000000000000000000000000000000000000000000000000000000000000000DF
:40220000000000000000000000000000000000000000000000000000000000000000000000000000000000000000000000000000000000000000000000000000000000009E
:020000040003F7
:0200000480007A
:40000000024F004001650040041501405F1A01403B1B0140024001400141014005420140014301400348014013490140064C01400B4D0140025001400251014001100A36FE
:400040008A0FE008E401E612EA0500130204051406150A080C130E0C10401303151C170219091B101C20210C2311240325102614280A2A142D102F0C3010311F322034402D
:40008000360F3A803E154056410145EC470B481349FF4AFF4BFF4EF04F44500C5401580459045A045B045F0166C06A406B0281808313840686018A018B088E059602970C34
:4000C000992C9B439E03A171A30EA606AD71AF06B130B30FB5C0B607B808B922BA80BB08BE04BF01C001C640C9FFCA07CBFFCC40CD20CEF0CF05D008D804D904DA04DF0187
:40010000E040E1A8E240E32000080180038405800608072009020B020E020F2010301320170819841A401B201E021F88210225082620276C29802B902D802F80310A3220CF
:40014000372838083F2243804740482449814B024F025004540456085710581059055A4083208708C0EFC2A9C426CA9BCC67CEA2D018D20CD60FE008E405E610EA0532803F
:40018000CC10A68012803E10A680C410CE20961067409610D8801220164074087B028220864087408C089740A302AA10AB02C430DC80DE20E010E480E640EAA0132817045B
:4001C0007B107F40C40EDE0370018001831087408F0497809B04A710AB28DC01E60810011C01000303C000000280000003000000830000808300830000000000000B0B0080
:4002000000000000000000000000000000000000000000000000000000000000000000000000000000000000000000000000000000000000000000000000000000000000BE
:40024000000000000000000000000000000000000000000000000000000000000000000000000000000000000000000000000000000000000000000000000000000000007E
:40028000000000000000000000000000000000000000000000000000000000000000000000000000000000000000000000000000000000000000000000000000000000003E
:4002C00000000000000000000000000000000000000000000000000000000000000000000000000000000000000000000000000000000000000000000000000000000000FE
:0200000490006A
:0400000000004005B7
:0200000490105A
:04000000BC90ACAF55
:0200000490303A
:0200000069296C
:0200000490402A
:4000000000000000000000000000000000000000000000000000000000000000000000000000000000000000000000000000000000000000000000000000000000000000C0
:400040000000000000000000000000000000000000000000000000000000000000000000000000000000000000000000000000000000000000000000000000000000000080
:400080000000000000000000000000000000000000000000000000000000000000000000000000000000000000000000000000000000000000000000000000000000000040
:4000C0000000000000000000000000000000000000000000000000000000000000000000000000000000000000000000000000000000000000000000000000000000000000
:0200000490501A
:0C00000000012E16106900012E227992DA
:00000001FF